{
  "contractName": "LandRegistry",
  "abi": [
    {
      "anonymous": false,
      "inputs": [
        {
          "indexed": true,
          "internalType": "uint256",
          "name": "landId",
          "type": "uint256"
        },
        {
          "indexed": false,
          "internalType": "string",
          "name": "location",
          "type": "string"
        },
        {
          "indexed": false,
          "internalType": "uint256",
          "name": "area",
          "type": "uint256"
        },
        {
          "indexed": true,
          "internalType": "address",
          "name": "owner",
          "type": "address"
        }
      ],
      "name": "LandRegistered",
      "type": "event"
    },
    {
      "anonymous": false,
      "inputs": [
        {
          "indexed": true,
          "internalType": "uint256",
          "name": "landId",
          "type": "uint256"
        },
        {
          "indexed": true,
          "internalType": "address",
          "name": "oldOwner",
          "type": "address"
        },
        {
          "indexed": true,
          "internalType": "address",
          "name": "newOwner",
          "type": "address"
        }
      ],
      "name": "OwnershipTransferred",
      "type": "event"
    },
    {
      "inputs": [
        {
          "internalType": "uint256",
          "name": "",
          "type": "uint256"
        }
      ],
      "name": "lands",
      "outputs": [
        {
          "internalType": "uint256",
          "name": "id",
          "type": "uint256"
        },
        {
          "internalType": "string",
          "name": "location",
          "type": "string"
        },
        {
          "internalType": "uint256",
          "name": "area",
          "type": "uint256"
        },
        {
          "internalType": "address",
          "name": "owner",
          "type": "address"
        },
        {
          "internalType": "bool",
          "name": "registered",
          "type": "bool"
        }
      ],
      "stateMutability": "view",
      "type": "function",
      "constant": true
    },
    {
      "inputs": [
        {
          "internalType": "uint256",
          "name": "_id",
          "type": "uint256"
        },
        {
          "internalType": "string",
          "name": "_location",
          "type": "string"
        },
        {
          "internalType": "uint256",
          "name": "_area",
          "type": "uint256"
        }
      ],
      "name": "registerLand",
      "outputs": [],
      "stateMutability": "nonpayable",
      "type": "function"
    },
    {
      "inputs": [
        {
          "internalType": "uint256",
          "name": "_id",
          "type": "uint256"
        },
        {
          "internalType": "address",
          "name": "_newOwner",
          "type": "address"
        }
      ],
      "name": "transferOwnership",
      "outputs": [],
      "stateMutability": "nonpayable",
      "type": "function"
    },
    {
      "inputs": [
        {
          "internalType": "uint256",
          "name": "_id",
          "type": "uint256"
        }
      ],
      "name": "getLand",
      "outputs": [
        {
          "internalType": "uint256",
          "name": "",
          "type": "uint256"
        },
        {
          "internalType": "string",
          "name": "",
          "type": "string"
        },
        {
          "internalType": "uint256",
          "name": "",
          "type": "uint256"
        },
        {
          "internalType": "address",
          "name": "",
          "type": "address"
        },
        {
          "internalType": "bool",
          "name": "",
          "type": "bool"
        }
      ],
      "stateMutability": "view",
      "type": "function",
      "constant": true
    },
    {
      "inputs": [
        {
          "internalType": "uint256",
          "name": "_id",
          "type": "uint256"
        }
      ],
      "name": "isLandRegistered",
      "outputs": [
        {
          "internalType": "bool",
          "name": "",
          "type": "bool"
        }
      ],
      "stateMutability": "view",
      "type": "function",
      "constant": true
    }
  ],
  "bytecode": "0x608060405234801561001057600080fd5b50610876806100206000396000f3fe608060405234801561001057600080fd5b50600436106100575760003560e01c806329507f731461005c5780632e8782bc1461007157806398f1c3401461009a578063e261f1e5146100ad578063f02dd53f146100d1575b600080fd5b61006f61006a36600461059e565b6100e4565b005b61008461007f366004610586565b6101aa565b60405161009191906106d8565b60405180910390f35b61006f6100a83660046105d8565b6101c9565b6100c06100bb366004610586565b6102e8565b6040516100919594939291906107ae565b6100c06100df366004610586565b6103ae565b60008281526020819052604090206003810154600160a01b900460ff166101265760405162461bcd60e51b815260040161011d90610705565b60405180910390fd5b60038101546001600160a01b031633146101525760405162461bcd60e51b815260040161011d90610769565b6003810180546001600160a01b038481166001600160a01b03198316811790935560405191169190829086907f16b85f49bf01212961345d3016c9a531894accf62eb7680f2045d79185cc0ec090600090a450505050565b600090815260208190526040902060030154600160a01b900460ff1690565b600083815260208190526040902060030154600160a01b900460ff16156102025760405162461bcd60e51b815260040161011d90610732565b6040805160a0810182528481526020808201858152828401859052336060840152600160808401819052600088815280845294909420835181559051805193949193610256939285019291909101906104ed565b5060408281015160028301556060830151600390920180546080909401511515600160a01b0260ff60a01b196001600160a01b039094166001600160a01b0319909516949094179290921692909217905551339084907f53a976a9b9d61df3bb2e08e33448938aea67fb03572279eb18ed48cdd6fad04e906102db90869086906106e3565b60405180910390a3505050565b6000602081905290815260409020805460018201805491929161030a906107ef565b80601f0160208091040260200160405190810160405280929190818152602001828054610336906107ef565b80156103835780601f1061035857610100808354040283529160200191610383565b820191906000526020600020905b81548152906001019060200180831161036657829003601f168201915b5050505060028301546003909301549192916001600160a01b0381169150600160a01b900460ff1685565b600060606000806000806000808881526020019081526020016000206040518060a0016040529081600082015481526020016001820180546103ef906107ef565b80601f016020809104026020016040519081016040528092919081815260200182805461041b906107ef565b80156104685780601f1061043d57610100808354040283529160200191610468565b820191906000526020600020905b81548152906001019060200180831161044b57829003601f168201915b5050509183525050600282015460208201526003909101546001600160a01b0381166040830152600160a01b900460ff16151560609091015260808101519091506104c55760405162461bcd60e51b815260040161011d90610705565b8051602082015160408301516060840151608090940151929a91995097509195509350915050565b8280546104f9906107ef565b90600052602060002090601f01602090048101928261051b5760008555610561565b82601f1061053457805160ff1916838001178555610561565b82800160010185558215610561579182015b82811115610561578251825591602001919060010190610546565b5061056d929150610571565b5090565b5b8082111561056d5760008155600101610572565b600060208284031215610597578081fd5b5035919050565b600080604083850312156105b0578081fd5b8235915060208301356001600160a01b03811681146105cd578182fd5b809150509250929050565b6000806000606084860312156105ec578081fd5b8335925060208085013567ffffffffffffffff8082111561060b578384fd5b818701915087601f83011261061e578384fd5b8135818111156106305761063061082a565b604051601f8201601f19168101850183811182821017156106535761065361082a565b60405281815283820185018a1015610669578586fd5b81858501868301379081019093019390935250929592945050506040919091013590565b60008151808452815b818110156106b257602081850181015186830182015201610696565b818111156106c35782602083870101525b50601f01601f19169290920160200192915050565b901515815260200190565b6000604082526106f6604083018561068d565b90508260208301529392505050565b60208082526013908201527213185b99081b9bdd081c9959da5cdd195c9959606a1b604082015260600190565b60208082526017908201527f4c616e6420616c72656164792072656769737465726564000000000000000000604082015260600190565b60208082526025908201527f4f6e6c7920746865206f776e65722063616e207472616e73666572206f776e65604082015264072736869760dc1b606082015260800190565b600086825260a060208301526107c760a083018761068d565b6040830195909552506001600160a01b03929092166060830152151560809091015292915050565b60028104600182168061080357607f821691505b6020821081141561082457634e487b7160e01b600052602260045260246000fd5b50919050565b634e487b7160e01b600052604160045260246000fdfea2646970667358221220e840b175e482bea413a6f1b49f186137e1c10db65ad0abfa6c3ebadddcd1688664736f6c63430008000033",
  "immutableReferences": {},
  "source": "// SPDX-License-Identifier: MIT\r\npragma solidity ^0.8.0;\r\n\r\ncontract LandRegistry {\r\n    // Structure to represent a land parcel\r\n    struct Land {\r\n        uint256 id;\r\n        string location;\r\n        uint256 area; // Area in square meters\r\n        address owner;\r\n        bool registered;\r\n    }\r\n\r\n    // Mapping from land ID to Land details\r\n    mapping(uint256 => Land) public lands;\r\n\r\n    // Event emitted when a new land is registered\r\n    event LandRegistered(uint256 indexed landId, string location, uint256 area, address indexed owner);\r\n\r\n    // Event emitted when land ownership is transferred\r\n    event OwnershipTransferred(uint256 indexed landId, address indexed oldOwner, address indexed newOwner);\r\n\r\n    // Register a new land parcel\r\n    function registerLand(uint256 _id, string memory _location, uint256 _area) public {\r\n        require(!lands[_id].registered, \"Land already registered\");\r\n\r\n        lands[_id] = Land({\r\n            id: _id,\r\n            location: _location,\r\n            area: _area,\r\n            owner: msg.sender,\r\n            registered: true\r\n        });\r\n\r\n        emit LandRegistered(_id, _location, _area, msg.sender);\r\n    }\r\n\r\n    // Transfer ownership of a land parcel\r\n    function transferOwnership(uint256 _id, address _newOwner) public {\r\n        Land storage land = lands[_id];\r\n        require(land.registered, \"Land not registered\");\r\n        require(land.owner == msg.sender, \"Only the owner can transfer ownership\");\r\n\r\n        address oldOwner = land.owner;\r\n        land.owner = _newOwner;\r\n\r\n        emit OwnershipTransferred(_id, oldOwner, _newOwner);\r\n    }\r\n\r\n    // Get land details\r\n    function getLand(uint256 _id) public view returns (uint256, string memory, uint256, address, bool) {\r\n        Land memory land = lands[_id];\r\n        require(land.registered, \"Land not registered\");\r\n\r\n        return (land.id, land.location, land.area, land.owner, land.registered);\r\n    }\r\n\r\n    // Check if land is registered\r\n    function isLandRegistered(uint256 _id) public view returns (bool) {\r\n        return lands[_id].registered;\r\n    }\r\n}\r\n",
  "sourcePath": "D:\\Blockchain\\Land Registry\\contracts\\LandRegistry.sol",
  "compiler": {
    "name": "solc",
    "version": "0.8.0+commit.c7dfd78e.Emscripten.clang"
  },
  "schemaVersion": "3.4.16",
  "updatedAt": "2024-08-12T05:49:06.247Z",
  "networkType": "ethereum",
  "devdoc": {
    "kind": "dev",
    "methods": {},
    "version": 1
  },
  "userdoc": {
    "kind": "user",
    "methods": {},
    "version": 1
  }
}